:020000040800F2
:10000000A00500203D1A0008C1170008C31700080A
:10001000C5170008C7170008C9170008000000002E
:10002000000000000000000000000000CB170008E6
:10003000CD17000800000000CF170008D1170008F6
:10004000591A00085D1A0008611A0008651A0008AC
:10005000691A00086D1A0008711A0008751A00085C
:10006000791A00087D1A0008811A0008851A00080C
:10007000891A00088D1A0008911A0008951A0008BC
:10008000991A00089D1A0008A11A00080000000033
:10009000000000000000000000000000A51A000899
:1000A000A91A0008D5170008AD1A0008B11A0008EF
:1000B0000318000817180008B51A0008B91A000834
:1000C000BD1A0008C11A0008C51A0008C91A00089C
:1000D000CD1A0008D11A0008D51A00080000000047
:1000E0006F180008D91A0008DD1A00080000000087
:1000F000000000000000000000000000E11A0008FD
:1001000000000000E51A0008E91A0008ED1A0008CE
:1001100000000000000000000000000000000000DF
:10012000F11A0008F51A0008F91A0008FD1A00086B
:10013000011B00080000000000000000000000009B
:10014000000000000000000000000000051B000887
:10015000091B00080D1B0008111B0008151B0008D7
:10016000191B00081D1B0008000000000000000013
:10017000000000000000000000000000000000007F
:1001800000000000211B000800000000000000002B
:10019000251B000838B5040001D1012032BD00F054
:1001A00039F818B900F032F800F0E2F924E00068FC
:1001B000C16841F00101C160816801F007010629B1
:1001C00003D0016841F00101016000207047006820
:1001D000C16849084900C16041F21112016A114227
:1001E00002BF016A40F24442114203D1016849084A
:1001F000490001600020704702206870211D2068BE
:1002000000F00DF901206870002032BD0021297036
:100210002046704704F13C056878704710B50446E5
:10022000206801698A0715D5C1688A0712D56FF061
:100230000201016101222277806910F0030F20463C
:1002400002D000F0E5F903E000F0E3F900F087F8F0
:1002500000202077206801694A0715D5C1684A0740
:1002600012D56FF00401016102222277806910F437
:10027000407F204602D000F0CBF903E000F0C9F93E
:1002800000F06DF800202077206801690A0715D575
:10029000C1680A0712D56FF00801016104222277B4
:1002A000C06910F0030F204602D000F0B1F903E05E
:1002B00000F0AFF900F053F80020207720680169C2
:1002C000CA0615D5C168CA0612D56FF010010161C2
:1002D00008222277C06910F4407F204602D000F047
:1002E00097F903E000F095F900F039F80020207745
:1002F00020680169CA0708D5C168CA0705D56FF02B
:1003000001010161204600F085F9206801690A06B3
:1003100008D5C1680A0605D56FF080010161204645
:1003200000F079F9206801694A0608D5C1684A06D3
:1003300005D56FF040010161204600F06DF920689D
:1003400001698A060AD5C1688A0607D56FF02001BF
:1003500001612046BDE8104000F05FB910BD2046A5
:1003600000F05CB938B500F04EF801D1022032BD82
:100370000120207002226270DFF81C012A68936855
:10038000034093600868020018BF10282DD0202871
:1003900018BF302829D0402823D0502816D06028F4
:1003A00018D0702803D0B0F5005F07D021E000F02E
:1003B00025F82868816841F0770105E000F01EF813
:1003C0002868816841F48041816012E000F012F8F1
:1003D00050210BE0CA684968286800F07EF8602167
:1003E00004E000F007F8402100E00146286800F032
:1003F00086F80EE0CA68496828685FE0CB684A68FA
:100400008968286883E0054605F13C0420780128C6
:1004100070470120607000212170002032BDF0B5CE
:100420001E4B04681E4D1F4E1F4F984218BFB0F15F
:10043000804F04D0B8421CBFB042A8420CD14A68D9
:1004400024F070041443984218BFB0F1804F0ED0CE
:10045000B84218BFB0420AD0A8421CBF134A90420B
:1004600005D0134DA8421CBF124A904203D1CA685E
:1004700024F4407414434A6924F080041443046053
:1004800098428C68C4620A68826202D109690A4A89
:10049000116001234361F0BD8800FFFF00000140AF
:1004A000000C0040000800400004004000400140F3
:1004B00000440140004801403000014010B5036A8B
:1004C000046A64086400046223F00A03846924F067
:1004D000F00444EA0214846123E010B5036A23F0B7
:1004E000100303628369046A23F4704343EA02330E
:1004F00024F0A004836144EA0114046210BD826800
:1005000022F07002114341F007018160704710B57D
:10051000846824F47F442143114341EA032181602C
:1005200010BD1943016210BD82B00020009000226E
:100530003248416841F480414160416801F48041A2
:10054000009100990092036843F0805303600068B3
:1005500000F0805000900098072002B000F089B8A9
:1005600000682749884202D126480122026070476C
:1005700080B50068244A214990420ED100200090A5
:100580004A6842F001024A600022486800F030F8F0
:10059000192000F07BF8192025E0B0F1804F0ED132
:1005A000002000900A6842F001020A6000220868F8
:1005B00000F01EF81C2000F069F81C2013E0134A1C
:1005C000904214D1002000900A6842F002020A60B2
:1005D0000022086800F002000090002100981D2011
:1005E00000F054F81D20BDE8024000F06CB801BDD9
:1005F00000F0010000900021009870474038024050
:10060000002800403C0E474200000140000400402A
:10061000704770477047704770477047704730B4F5
:10062000002513E050F8042BD30744BFA9F10103C0
:100630009A18091F042942F8045BFAD213468C0762
:1006400044BF15809B1CC90748BF1D7050F8041B90
:100650000029E7D130BC70470901020002D42948C3
:1006600081547047284B02F00F021A4402F8041C10
:100670007047264B19684FF6FF020002114000F444
:10068000E0600843224908431860704738B51F4BA3
:100690001C68C4F30223C3F10704052C28BF0424FB
:1006A0001D1D072D34BF0023DB1E012505FA04F4B0
:1006B000641E2140994005FA03F35B1E1A40114362
:1006C000BDE83440C8E7010007D4012200F01F0153
:1006D000104B8A40400943F82020704710B5401E57
:1006E000B0F1807F01D3012010BD0B4C60600F2161
:1006F0004FF0FF30FFF7B0FF0021A160072020601E
:10070000002010BD00E400E018ED00E00CED00E07A
:100710000000FA0500E100E010E000E070B5040020
:1007200031D0607F20B9002121772046FFF718FFE4
:1007300000F03BF853202168486200F09BF8FF2549
:10074000E8B92168DFF8AC028A6802408A60226852
:1007500093686668216960690E430643334393607A
:100760002068E168016120680169A26841EA0241EC
:10077000016100F074F808D400F07AF828B120681C
:10078000456204216177012070BD2068016C21F46D
:100790008021016421680A6CA06902430A64012077
:1007A00021684D626077002070BD02206077CA2109
:1007B000226851627047F8B504460D46207F012833
:1007C00001D10220F2BD00F0BCF82068806815D18C
:1007D00041065CBF0020E870287800F045F9064625
:1007E000687800F041F90702A87800F03DF947EA7F
:1007F00006470743E87847EA00470DE041065CBF3B
:100800000020E8706F782978A8783F0247EA01470E
:10081000E978074347EA01472168CA204862532222
:100820002068426200F026F8FF26B0B92168DFF8A0
:10083000C80107400F602068826822F4802282602D
:1008400021688A68EB68286903431A438A6000F0CC
:1008500006F803D400F00CF800B178E06AE02068F4
:10086000C16821F08001C1602068816888067047F6
:100870002046C5E02046DCE030B50068836A4B6066
:100880000469C4F30E048C600368DFF86C01034054
:10089000180C00F03F040C701D0A00F040004D7071
:1008A0008B70C87022B900F091F812FB03028A70B5
:1008B000002030BDF8B504460E46207F012801D146
:1008C0000220F2BD00F03DF875782CD1E80603D582
:1008D00005F0EF050A357570F07800F0C5F80746A9
:1008E000707800F0C1F80502B07800F0BDF845EA74
:1008F00007450543307845EA40352068CA21416202
:10090000532221684A62FFF7B5FFFF2650B92168DC
:10091000DFF8E80005404D60FFF7A1FF0AD4FFF7BC
:10092000A7FF38B113E0F078317800F043F845EADA
:100930004135E2E720684662012161770020207797
:10094000F2BD0120207702216177002A70472068DC
:100950004662042100F02AF80120F2BD30B5036898
:10096000DFF898005B6803408B701D0A1C0C05F0D3
:100970001F055B0BCC704D7003F007030B7092B931
:10098000C87803090A2200F00F0012FB0300C870A8
:100990004878030900F00F0012FB030048708878C4
:1009A00000F00EF88A70002030BD0321617700202E
:1009B000207770472D0245EA0045B078054370471F
:1009C000030900F00F0012FB0302704708780309C7
:1009D0000A2200F00F0012FB030008704878030998
:1009E00000F00F0012FB030048708878030900F044
:1009F0000F007047BFFF8FFF7F7F7F003FFFFF002B
:100A000038B504462068C16821F0A001C16000F03B
:100A100037F805462068C168880608D400F030F829
:100A2000401B40F2E9318842F4D3032032BD00205C
:100A300032BD38B504462068C1684A0612D44FF06A
:100A4000FF31C16000F01CF805462068C168480607
:100A500008D400F015F8401B40F2E9318842F4D385
:100A6000032032BD002032BD002101E0491C0A38BC
:100A7000C2B20A2AFAD240EA0110C0B2704700009E
:100A800001484068704700BFFC000020F8B586B000
:100A900000F07AF900F003F900F0F9F80020009076
:100AA0004FF48055A848A94C016841F080010160CD
:100AB00040F2E737026802F08002009200220099BB
:100AC0000092036843F001030360016801F0010133
:100AD0000091009900926021036843F002030360D3
:100AE000006800F0020000900098204600F029FA0B
:100AF000602101910122002103910491029201A938
:100B0000204600F05BF94FF420409149019002919A
:100B10000022039201A98F488F4C00F04FF9002268
:100B200000212820FFF7B2FD5FF02800FFF7CBFD82
:100B300000F0B1F84CF24F318DA004F18406D0E9F9
:100B400000238648E063216400206064C820218B74
:100B50004143491EA164CDE900230021E1642165E0
:100B6000616504F13C00FFF715FB029502A904F151
:100B70003C00FFF7F7FB00210091019104F13C00DC
:100B8000694600F007FA00F086F800BF7AA04FF03F
:100B90008041D0E90023E167CDE9002341F28730AD
:100BA000C4F8800000213160B1603161776004F1E8
:100BB0007C00FFF7EFFA029502A904F17C00FFF731
:100BC000D1FB00210091019104F17C00694600F005
:100BD000E1F900F060F800BF69A2614BD2E90001C1
:100BE000CDE90001B3630020F06330647764B06442
:100BF000306504F1BC063046FFF7CCFA029502A935
:100C00003046FFF7AFFB0021009101913046694665
:100C100000F0C0F95348E06100217F20606221624A
:100C20000020FF21E06220636063A16204F11C00E8
:100C3000FFF774FD152045212071617127200021E7
:100C4000A071216161610122211D04F11C00FFF7E7
:100C5000B2FD032020700621122219206170A270BB
:100C6000E0700122214604F11C00FFF723FE01225F
:100C7000211D04F11C00FFF7FFFD0122214604F1B4
:100C80001C00FFF76BFEA07900F0EEF9FEE701A86B
:100C9000142100F0F7B902A8102100F0F3B900B553
:100CA00097B006A8302100F0EDF9FFF7F0FF12A889
:100CB000FFF7EEFF0020009001232B48016841F070
:100CC000805101600021006800F080500090009881
:100CD00026480091026822F4404242F40042026039
:100CE0000A22006800F44040009006A8009906928D
:100CF00010210A91002202210C910D92082150220C
:100D00000E910F920221072209930B9310911192D9
:100D100000F0BCF902210291A02203920F204FF4AF
:100D200080510190049100220592002101A800F059
:100D300029FB02214FF400721291159212A800F0C3
:100D4000DFFB17B000BD0000303802400000024059
:100D500000001110000402400000002000000140CB
:100D6000000400400028004040380240007000406D
:100D70000000000000000000000000000000000073
:100D8000000000000000000080B50B48016841F43D
:100D900000710160026842F480620260016841F4FF
:100DA000807101600320FFF764FC002000F048FC24
:100DB000FFF7BAFB002002BD003C02402DE9F847D6
:100DC00003460C464FF0000868480F2101222568B1
:100DD00002FA08FC0CEA0509E14540F0AA806568C2
:100DE000022D18BF122D4FEA880A10D14FEAD805FC
:100DF00003EB850E0AF01C06DEF8205001FA06F718
:100E0000BD43276907FA06F63543CEF820504FEA6E
:100E1000480E03251E68277905FA0EF5ED4307F005
:100E200003072E4007FA0EF73E431E606668012E48
:100E300018BF022E03D0112E18BF122E10D19E689B
:100E4000E7682E4007FA0EF73E439E605E6826EA8A
:100E50000C076668C6F3001606FA08F63E435E60A5
:100E6000DE683540A66806FA0EF63543DD60656833
:100E7000ED005ED5002500954FEA980C05683C4FC3
:100E800045F4804505600AF00C0A056805F48045C4
:100E90000095009D57F82C6001FA0AF526EA050531
:100EA000344EB34208BF002613D0334EB34208BFBE
:100EB00001260ED0314EB34208BF022609D0304E73
:100EC000B34208BF032604D02E4EB3420CBF042603
:100ED000072606FA0AF6354347F82C506FEA090C44
:100EE000294F3D680CEA050E6568EE0348BF49EAE4
:100EF0000E0EC7F800E07D680CEA050E6568AE03CB
:100F000048BF49EA0E0EC7F804E0BD680CEA050EBA
:100F10006568EE0248BF49EA0E0EC7F808E0FD68B2
:100F20000CEA050E6568AD0248BF49EA0E0EC7F827
:100F30000CE008F10108B8F10F0F7FF648AFBDE8EB
:100F4000F18702B909048161704742690A408A4207
:100F500008BF0904816170470C4A136803421CBF33
:100F6000106000F015B870470000000044380240DF
:100F7000083801400000024000040240000802401E
:100F8000000C024000100240003C0140143C0140B3
:100F90007047000070B500F13C031A78012A01D1B6
:100FA000022070BD01221A7002245C70046865681A
:100FB000A6684A68096825F070050D43656026F04B
:100FC0008006006816438660012159700020187061
:100FD00070BD0000F0B5274C274A2078274B6FF0F2
:100FE000004150BB0820656803FB05250E46B5FB94
:100FF000F6F601FB1655401E6560F4D1204D2E46D5
:101000001020676803FB07278C46B7FBFCFC01FB3D
:101010001C77676046F8047B8E4603FB0727B7FB07
:10102000FEFE01FB1E776760401E46F8047BE8D198
:10103000E86FC5F8800001252570606803FB002279
:101040000B46B2FBF3F301FB13210D4A616092F8EA
:10105000803003F01F0352F82300C2F8800042F8EA
:10106000231020F04040F0BD024900220A70486081
:10107000704700000C0100205FF36E3C0D66190004
:1010800014010020002200F0FBBA00002DE9F84313
:10109000040017D02078B74EC10745D5B06800F0DE
:1010A0000C00042807D0B06800F00C0008280BD111
:1010B0007068410208D53068810335D56068002822
:1010C00040F0BA80012053E16068B0F5803F04D160
:1010D000306840F48030306011E0B0F5A02F306807
:1010E00006D140F480203060316841F4803105E061
:1010F00020F480303060316821F4802131606068F4
:1011000068B1FFF7BDFC05463068810300F19480AB
:10111000FFF7B6FC401B6528F6D3032028E1FFF754
:10112000AFFC05463068810340F18680FFF7A8FCDC
:10113000401B6528F6D3F0E7FFF7A2FC401B02280E
:1011400040F2A780E9E7E06870B101213960FFF75C
:1011500097FC05463068810700F1CB80FFF790FCD3
:10116000401B0228F6D9D8E73860FFF789FC05460E
:101170003168880763D5FFF783FC401B0228F7D945
:10118000CBE70860FFF77CFC0546706F810775D5DB
:10119000FFF776FC401B0228F7D9BEE70528306F21
:1011A00006D140F004003067306F40F0010005E0E8
:1011B000400840003067306F20F00400306741F293
:1011C0008938A06868B1FFF75BFC8146306F810702
:1011D00000F19C80FFF754FCA0EB09004045F5D3DB
:1011E0009BE7FFF74DFC8146306F810740F18E8011
:1011F000FFF746FCA0EB09004045F5D38DE7FFF76C
:101200003FFC401B022840F2968086E7FFF738FC3F
:10121000001B022840F2A7807FE700203866FFF716
:101220002FFC04463068810140F1A180FFF728FCC3
:10123000001B0228F6D970E720784F4F81071BD595
:10124000B06810F00C0F09D0B06800F00C0008284E
:101250007FF479AF706841023FF575AF3068810760
:1012600003D5E06801287FF42DAF3168206921F0B3
:10127000F80141EAC0013160217808070DD56069A5
:101280003E4900283FF47DAF01220A60FFF7F8FBDA
:101290000546706F81077FF54FAF207841073AD53B
:1012A000306C0025C1000AD400950125316C41F055
:1012B00080513164306C00F0805000900098DFF86D
:1012C000C080D8F80000C1051BD4D8F8000040F455
:1012D0008070C8F80000FFF7D3FB8146D8F8000003
:1012E000C1050ED4FFF7CCFBA0EB09000228F5D90D
:1012F00013E73068216920F0F80040EAC10030604F
:10130000BAE7A06801287FF449AF4DE71DB1306C02
:1013100020F080503064A06948B3B16801F00C013E
:1013200008293FF4CFAE02287FF477AF002038665B
:10133000FFF7A6FB0546306881013FF560AFE26923
:10134000206A616A0243A06A400842EA8112401E94
:1013500042EA0042E06A42EA0062726001213966B4
:10136000FFF78EFB0446306881017FF54FAF002008
:10137000BDE8F2830038024000004742800E474239
:10138000007000402DE9F04104000F4677D0404E38
:10139000306800F00F00B84202D200F072F86ED14F
:1013A00020683C4D810712D5400703D5A96841F458
:1013B000E051A9602078010703D5A86840F4604097
:1013C000A860A968A06821F0F0010143A960217814
:1013D000C8074CD56068012802D129688A0305E056
:1013E000022818BF032803D129688A0103D446E0E4
:1013F00029688A0743D5A968890840EA8100A8605E
:10140000FFF73EFB8046A868616800F00C00B0EB77
:10141000810F2CD0FFF734FBA0EB080041F289319B
:101420008842F0D3032020E02078410705D5AA6840
:10143000E06822F4E0520243AA602178080706D54A
:10144000A968206921F4604141EAC001A96000F067
:1014500027F8AA681049114BC2F30312895CC840EF
:101460001860002000F0ECF80020BDE8F081306842
:1014700000F00F008742D7D200F003F8D4D001204B
:10148000F3E73770316801F00F01B942704700008F
:10149000003C0240003802404019000808010020CA
:1014A00030B5144C606800F00C00042802D0082805
:1014B00002D01DE0104830BD2268206800234102A0
:1014C00002F03F0204D525680B49C5F3881003E0FC
:1014D00020680A49C0F38810A1FB000100F0EAF877
:1014E0002168C1F30141491C4900B0FBF1F030BD56
:1014F000024830BD0438024000127A000024F40093
:10150000F8B50446474D207810F0050F40D0464E00
:1015100000203060FFF7B4FA0746296808012CD58F
:10152000FFF7AEFAC01B0228F7D90320F2BDFFF780
:10153000A7FA801B022828D9F7E7FFF7A1FA801B3A
:1015400002283BD9F1E7FFF79BFA801B41F2893172
:1015500088424ED3E9E7A86820F4F810A860286F05
:10156000E168C1F30B01084328672078010702D521
:10157000207C2E4908600020F2BDA168606800F060
:1015800049F83260FFF77CFA064628680101CED59B
:1015900020788107E9D500200090296C244F41F084
:1015A00080512964286C00F08050009000983968C0
:1015B00041F480713960FFF763FA06463868C10567
:1015C000BBD5286F10F440701EBFE16801F4407174
:1015D000884211D0286F174901220A6000230B604E
:1015E00020F440702867286FC10705D5FFF748FA37
:1015F0000646286F8107A6D5E16801F44070B0F572
:10160000407FA8D1AA680C4822F4F8120140114387
:10161000A960A4E7090741EA801108480160012296
:10162000704700000038024068004742E01147421E
:1016300000700040400E4742FFFCFF0F843802401C
:1016400038B50D4D0D4B2A7804464FF47A71186861
:10165000B1FBF2F2B0FBF2F0FFF740F850B9102CFA
:1016600008D2002221464FF0FF30FFF70FF8AC60A0
:10167000002032BD012032BDFC0000200801002006
:1016800000B500BF130096469446103928BFA0E865
:101690000C50FAD85FEA417C28BF0CC048BF40F824
:1016A000042BC90728BF20F8022B48BF00F8012BE4
:1016B00000BD0000D3BBD9B1B2F5803F5BD2022A96
:1016C0001ED98C46B1FBF2F102FB11C31B0443EAA5
:1016D0001043B3FBF2FC02FB1C3380B240EA03432D
:1016E000B3FBF2F002FB103240EA0C4000237047DB
:1016F000022A05D98446B0FBF2F002FB10C2704703
:101700004AB105D100F0010249085FEA3000704794
:1017100000220023704700F051B80B0002000021A6
:1017200000207047F7D3002200237047904271EBEE
:10173000030CF2D370B5B1FA81F4B3FA83F52C1B24
:10174000A340C4F1200532FA05F63343A2405FF00E
:101750000046E64002E05B085FEA3202841A71EB61
:10176000030524BF204629467641F4D302000B002E
:101770003000002170BD70B5B1FA81F4B2FA82F583
:10178000C4F120046419B4F12006DAD3B2405FF04A
:101790000044F440002502E052085FEA3303C61A11
:1017A00071EB020E24BF3046714664416D41F3D3A4
:1017B00002000B002000290070BD000070470000EF
:1017C0007047FEE7FEE7FEE7FEE7704770477047A9
:1017D00000F086B838B53A483A4C3B4DFEF7F7FC76
:1017E0002046FEF7F4FC3948FEF7F1FC00222021E8
:1017F0002846FFF7A6FB002240212846FFF7A1FB61
:1018000030E080B520213048FFF79FFBBDE8024063
:101810002B48FEF703BD38B540212B482C4D2B4CEF
:10182000FFF793FB2888B0F57A7F0FD1FFF7D2FB43
:101830004FF4277290FBF2F24FF4277101FB120074
:1018400000F5A670688080B22268D06240F2E9326A
:101850002988491C89B291FBF2F240F2E93000FB81
:10186000121129802046BDE83240FEF7D7BC10B5E2
:10187000184C194901222046FEF7FEFF01221749A4
:101880002046FFF76BF80F4802686FF00101116105
:10189000FEF78DFC0A48FEF78AFC0C48FEF787FC31
:1018A000012220210848FFF74CFB4FF40050FFF7BE
:1018B00053FBBDE810404FF40040FFF74DBB000064
:1018C0007C0000203C00002000000240BC00002002
:1018D000980100201C0000200400002000000020CF
:1018E0000248416802788A1842607047FC00002074
:1018F0000E48016841F47001016000220C4908683B
:1019000040F0010008608A600B680A480A4A0340F8
:101910000B604A6000200B68084A23F480230B60A8
:10192000C8604FF0006111607047000088ED00E072
:1019300000380240FFFFF6FE1030002408ED00E002
:10194000000000000000000001020304060708096F
:1019500030B5016884684218416802EB5103C90739
:101960000BD54C4409E012F9011B12F8015B002968
:1019700004F8015B05D5491CF9D19A42F3D10C302A
:1019800030BD491EF1D5F8E710B507497944183143
:10199000064C7C44163404E00A68081D114488474C
:1019A0000146A142F8D110BD2C0000004800000003
:1019B0004EF68851CEF20001086840F470000860CD
:1019C000BFF34F8FBFF36F8F4FF00070E1EE100A3F
:1019D000704700004BECFFFF88000000140100205E
:1019E000000000006DFFFFFF40010000320000001A
:1019F0000000002000F00DF8002801D0FFF7C4FF20
:101A0000AFF300800020AFF30080FFF73FF800F055
:101A100002F80120704700F001B800000746384680
:101A200000F002F8FBE7000080B5AFF30080024A47
:101A300011001820ABBEFBE72600020001488047DA
:101A400001480047F11800084D1A0008AFF3008064
:101A5000FFF7AEFFFFF7CEFFFFF7FEBFFFF7FEBFBA
:101A6000FFF7FEBFFFF7FEBFFFF7FEBFFFF7FEBFAA
:101A7000FFF7FEBFFFF7FEBFFFF7FEBFFFF7FEBF9A
:101A8000FFF7FEBFFFF7FEBFFFF7FEBFFFF7FEBF8A
:101A9000FFF7FEBFFFF7FEBFFFF7FEBFFFF7FEBF7A
:101AA000FFF7FEBFFFF7FEBFFFF7FEBFFFF7FEBF6A
:101AB000FFF7FEBFFFF7FEBFFFF7FEBFFFF7FEBF5A
:101AC000FFF7FEBFFFF7FEBFFFF7FEBFFFF7FEBF4A
:101AD000FFF7FEBFFFF7FEBFFFF7FEBFFFF7FEBF3A
:101AE000FFF7FEBFFFF7FEBFFFF7FEBFFFF7FEBF2A
:101AF000FFF7FEBFFFF7FEBFFFF7FEBFFFF7FEBF1A
:101B0000FFF7FEBFFFF7FEBFFFF7FEBFFFF7FEBF09
:101B1000FFF7FEBFFFF7FEBFFFF7FEBFFFF7FEBFF9
:101B2000FFF7FEBFFFF7FEBFE800000A81009C0040
:101B30000001F9000010FC000124F4FB000001FD8D
:011B400000A4
:0400000508001A4D88
:00000001FF
